:100000000C94E53F0C9416400C9416400C9416404A
:100010000C9416400C9416400C9416400C94164008
:100020000C9416400C9462C50C9462C50C9462C585
:100030000C9416400C9416400C9416400C941640E8
:100040000C9416400C9439F00C9416400C94164005
:100050000C9416400C9416400C944FD70D94D00E6F
:100060000C9416400C94845C0C947A5C0C941640AE
:100070000C9416400C9416400C9416400C941640A8
:100080000C9416400C9416400C9416400C94164098
:100090000C9416400C9416400C9416400C94164088
:1000A0000C9416400C9416400C9416400C94164078
:1000B0000C9416400C9416400C9416400C94164068
:1000C0000C9416400C9416400C9416400C94164058
:1000D0000C9416400C9416400C9416400C94164048
:1000E0000C941640EFA721A823A832A837A8EDA7A3
:1000F00042A838C63BC62AC62EC632C672C63FC6FE
:1001000043C649C64DC651C657C65BC65FC672C612
:1001100065C669C66DC6ECC6F1C6F6C600C70AC795
:1001200083C714C71CC724C72EC738C742C751C7C7
:100130005BC783C765C76FC779C7084AD73B3BCE44
:10014000016E84BCBFFDC12F3D6C74319ABD5683D6
:100150003DDA3D00C77F11BED9E4BB4C3E916BAA8E
:10016000AABE000000803F05A84CCDB2D44EB938DD
:1001700036A9020C50B9918688083CA6AAAA2ABEC4
:10018000000000803F000C9438C70C9456E40D9496
:100190002A160C94DD8C0C943BC60C94ECC60C9483
:1001A000F6C60C940EC10C9432A80C9411E40C9475
:1001B00018E70C942BD10C942AC60C94E18C0C9467
:1001C000C0E60C9487E40C946DC60C945BC60C944A
:1001D000B5E80C944DC60C941EC10C94F2D20C944C
:1001E000E3E30C9457C60C9483C70C9465C60C9437
:1001F00016C10C9422600C943ED10C949DE30C9497
:1002000065640C94D1C90C9435A70C9481B80C94F6
:100210001CC10C94EDA70C94EB940C945B5D0C94B6
:100220001CC70C9488600C94966D0C941A900C94D6
:100230005FC60C9442A80C943FC40C949AE40C94AE
:100240007D5D0C9414C70C9418D30C94B6940C9444
:10025000C55D0C94D0E40C94A65D0C94E58C0C94D4
:10026000825D0C94CB5C0C9468950C9451C60C94F4
:1002700041900C94E6D20C94C4B70C947BE40C949B
:10028000D7A70C9412C10D94A41A0C946FE40C948B
:1002900038620C94886C0C944AD50C9410C10C9460
:1002A00057C40C9427600C944B950C94B1A80C94F3
:1002B000CAE40C9424C70C9400E70C94F1C60C9487
:1002C000A6E80C942EC60C94D0B70C9414C10C94D0
:1002D0000D950C9423A80C9457D10C9408D10C9430
:1002E00024E40C94A6E40C94BCE30C9474D50C9414
:1002F00065710C9450950C94C88C0C94D5940C9406
:100300003DE40C940A5D0C94D6E40C9455950C9441
:1003100095660C944BD60C94C4E40C9481A70C9471
:10032000735D0C94A0E40C9480600C94E4D20C9463
:100330002F950C94CC8C0C9469C60C94C1B70C947A
:10034000615D0C94B6E30C945BC70C9421A80C94EB
:10035000EFC00C9400C70C94BEBD0C9443C60C9423
:1003600058C40C94BEE40C9418C10C9467640C94AB
:1003700004D30C94BE940C946FC70C94D2BE0C940E
:1003800038C60C9481690C9444D50C94C75D0C94C8
:1003900065C70C94A66D0C940AD30C940AC70C94F0
:1003A000B8E40C94B1E60C941D5D0C94B2E40C948A
:1003B0001D600C94C5B70C94936C0C946D5D0C94FB
:1003C000076F0C94559C0C9459B80C945FA70C942F
:1003D00032C60C945E950C94255D0C942EC70C943B
:1003E0009E6D0C94096E0C9449C60C9442C70C94F3
:1003F000675D0C9409E70C9451C70C94FEE30C94D0
:100400001AC10C94F7B70C94026E0C94CAE30C94C6
:10041000875D0C94785D0C948AE30C94A2E60C94AE
:10042000B3700C94C8B70C9455D40C9454A80C9485
:10043000B46D0C942C600C94C0C40C94A8C40C949F
:10044000AE6D0C943FC60C948E6D0C9479C70C94D1
:1004500037A80C94BEB70C94F76A0C94778C0C9464
:1004600072C60C94EFA70C94ACE44E414E494E4931
:100470005459494E46CDCCCC3D0AD7233C17B7D171
:100480003877CC2B329595E6241FB14F0A00002017
:10049000410000C84200401C4620BCBE4CCA1B0E96
:1004A0005AAEC59D7400407A10F35A00A0724E18DF
:1004B000090010A5D4E80000E87648170000E40B16
:1004C00054020000CA9A3B000000E1F505000080DC
:1004D000969800000040420F000000A08601000036
:1004E00000102700000000E8030000000064000086
:1004F0000000000A00000000000100000000002CC5
:1005000076D888DC674F0823DFC1DFAE59E1B1B789
:1005100096E5E3E453C63AE651997696E8E6C28456
:1005200026EB898C9B62ED407C6FFCEFBC9C9F406E
:10053000F2BAA56FA5F490055A2AF75C936B6CF993
:10054000676DC11BFCE0E40D47FEF520E6B500D069
:10055000ED902E0300943577050080841E0800007E
:10056000204E0A000000C80C333333330F986E124C
:10057000831141EF8D2114893BE65516CFFEE6DB52
:1005800018D1844B381BF77C1D901DA4BBE424209C
:100590003284725E228100C9F124ECA1E53D27433B
:1005A0004F4D4D554E49434154494F4E00445259C9
:1005B00052554E004552524F525300494E464F003D
:1005C0004543484F00E4BC91E79CA0E4B8AD202E21
:1005D0002E2E00E782B9E587BBE7BBA7E7BBAD20BE
:1005E0002E2E2E00E697A0E7A7BBE58AA800456E51
:1005F000642066696C65206C6973740A00426567E3
:10060000696E2066696C65206C6973740A004E6FB0
:10061000206D656469610A00286E6F2066696C65EB
:10062000290043757272656E742066696C653A20A4
:10063000005344207072696E74696E672062797429
:100640006520004E6F74205344207072696E746987
:100650006E670A0044656C6574696F6E2066616937
:100660006C65642C2046696C653A200046696C65AF
:100670002064656C657465643A0025697920256994
:1006800064202569682025696D20256973005072F2
:10069000696E742074696D653A20006F6666004467
:1006A000454255473A004D313132205368757464E4
:1006B0006F776E004D313133205300E783ADE5BADB
:1006C0008AE586B7E58DB4E4B8AD202E2E2E00E580
:1006D0008AA0E783ADE783ADE5BA8AE4B8AD202E02
:1006E0002E2E005A65726F205072696E74657220EA
:1006F0004F46462E004348414D4245525F54454DBA
:100700005045524154555245004241425953544577
:100710005050494E470041524353004D4F54494FAA
:100720004E5F4D4F44455300544845524D414C5F38
:1007300050524F54454354494F4E004C4F4E475F23
:1007400046494C454E414D45004155544F52455048
:100750004F52545F53445F535441545553005344D4
:10076000434152440050524F4D50545F53555050E6
:100770004F525400454D455247454E43595F5041F5
:100780005253455200434153455F4C494748545FDB
:100790004252494748544E45535300544F47474CE3
:1007A000455F4C494748545300534F4654574152B4
:1007B000455F504F574552004255494C445F5045A4
:1007C0005243454E54004C4556454C494E475F44B4
:1007D000415441005A5F50524F42450052554E4FCE
:1007E0005554004155544F4C4556454C00505249C4
:1007F0004E545F4A4F420050524F475245535300A8
:100800004155544F5245504F52545F54454D50003E
:10081000564F4C554D455452494300454550524F53
:100820004D0042494E4152595F46494C455F545232
:10083000414E534645520053455249414C5F584F33
:100840004E5F584F4646004649524D574152455F0C
:100850004E414D453A4D61726C696E20322E302EFC
:10086000372E322028446563203230203230323037
:100870002032333A30333A34392920534F555243DA
:10088000455F434F44455F55524C3A6874747073EA
:100890003A2F2F6769746875622E636F6D2F4D61F3
:1008A000726C696E4669726D776172652F4D617207
:1008B0006C696E2050524F544F434F4C5F56455217
:1008C00053494F4E3A312E30204D414348494E4511
:1008D0005F545950453A5A65726F205072696E7470
:1008E00065722045585452554445525F434F554E0A
:1008F000543A3120555549443A6365646532613252
:10090000662D343161322D343734382D396231322D
:100910002D6335356336326633363766660A002F07
:100920002F20004D31343520533C696E6465783E8C
:10093000206F7574206F662072616E6765202830A5
:100940002D31290A00416363656C65726174696FBA
:100950006E3A2050003F4A206F7574206F662072F7
:10096000616E67652028302E303120746F20302E64
:1009700033290A0020204D61783A200020204D695B
:100980006E3A2000536F667420656E6473746F70E6
:10099000733A200046523A0020466C6F773A2000A6
:1009A00020643A0020693A0020703A00496E76616E
:1009B0006C69642065787472756465720A004C43D2
:1009C0004420436F6E74726173743A2000646973DB
:1009D0000043290A0061626C656420286D696E20FD
:1009E00074656D702000436F6C6420657874727557
:1009F000646573206172652000E5BD92E4BD8D20C1
:100A000025732573257320E5858800E5818FE7A789
:100A1000BBE5B7B2E590AFE794A8004572723A2003
:100A2000546F6F206661722100546F6F206661728F
:100A30002066726F6D207265666572656E636520F3
:100A4000706F696E740A00454550524F4D204F4BF0
:100A50000A00206472697665722063757272656E31
:100A6000743A20007370726561644379636C650049
:100A7000737465616C746843686F70002064726998
:100A8000766572206D6F64653A090020686F6D6944
:100A90006E672073656E73697469766974793A203C
:100AA00000446F6E65207072696E74696E672066AF
:100AB000696C650A004D3737004D333100C005BB06
:100AC00005B405AD059F054572726F722077726996
:100AD00074696E6720746F20454550524F4D210A4E
:100AE000004D343130004D313132004D313038005D
:100AF000E5B7B2E5819CE6ADA2005072696E7465FF
:100B0000722073746F707065642064756520746FF3
:100B1000206572726F72732E204669782074686542
:100B2000206572726F7220616E6420757365204D4E
:100B300039393920746F20726573746172742E2094
:100B40002854656D706572617475726520697320D3
:100B500072657365742E2053657420697420616614
:100B60007465722072657374617274696E67290AA4
:100B7000004E6F20436865636B73756D20776974F1
:100B800068206C696E65206E756D6265722C204CF4
:100B9000617374204C696E653A2000636865636B0D
:100BA00073756D206D69736D617463682C204C6181
:100BB0007374204C696E653A20004C696E65204E56
:100BC000756D626572206973206E6F74204C61735D
:100BD00074204C696E65204E756D6265722B312CE8
:100BE000204C617374204C696E653A20004D3131A0
:100BF000300053442072656164206572726F720A1E
:100C0000002121204B494C4C2063617573656420A1
:100C10006279204B494C4C20627574746F6E2F7052
:100C2000696E0A002121204B494C4C206361757389
:100C3000656420627920746F6F206D756368206928
:100C40006E6163746976652074696D65202D20631B
:100C5000757272656E7420636F6D6D616E643A209B
:100C600000627573793A2070617573656420666FF0
:100C70007220696E7075740A00627573793A20701B
:100C8000617573656420666F7220757365720A0002
:100C9000627573793A2070726F63657373696E67FA
:100CA0000A00E5AD98E582A8E58DA1E8A2ABE68B48
:100CB00094E587BA00E5AD98E582A8E58DA1E5B792
:100CC000B2E68F92E585A500E9858DE7BDAE00E52A
:100CD0008F96E6B68800E8BF94E59B9E00E69BB43D
:100CE000E68DA2E5AD98E582A8E58DA1004D3231F3
:100CF00000E681A2E5A48DE68993E58DB000E69734
:100D0000A0E5AD98E582A8E58DA100E8B083E69561
:100D1000B400E5819CE6ADA2E68993E58DB000E6DE
:100D20009A82E5819CE68993E58DB000E4BFA1E657
:100D300081AFE5B18F00E5BC80E5A78BE68993E53F
:100D40008DB00043616E6E6F7420656E74657220A5
:100D50007375626469723A2000022E2E00E783AD3B
:100D6000E7ABAFE5A4AAE586B700E7BBA7E7BBAD55
:100D70000068747470733A2F2F6D61726C696E66BF
:100D8000772E6F726700322E302E372E32002020E1
:100D9000506C616E6E6572427566666572427974FA
:100DA00065733A20002046726565204D656D6F724F
:100DB000793A2000436F6D70696C65643A20446530
:100DC0006320323020323032300A00204C6173749C
:100DD00020557064617465643A20323032302D31B0
:100DE000302D3135207C20417574686F723A20288F
:100DF000736861776E2C2064656661756C7420631E
:100E00006F6E666967206F66207A65726F290A00C7
:100E1000322E302E372E320A00E9A9ACE69E97001A
:100E200020536F6674776172652052657365740A2A
:100E300000205761746368646F672052657365743E
:100E40000A002042726F776E206F757420526573AE
:100E500065740A002045787465726E616C20526575
:100E60007365740A00506F77657255700A0061757A
:100E7000746F25632E67004732385859004D313062
:100E80003031006572726F722077726974696E67B3
:100E900020746F2066696C650A00446F6E6520736C
:100EA0006176696E672066696C652E0A004D32397D
:100EB00000E68CA1E59D970025532025632025633E
:100EC00020256320256300656E6473746F70732042
:100ED0006869743A200001FFFFFFFFFFFFFFFFFF7B
:100EE000FFFFFFFF0FFFFFFFFFFFFFFFFFFFFFFF02
:100EF000FFFF1E0000000000000000000007FFFFD1
:100F0000380000000000000000000003FFFF700038
:100F100000000000000000000001FFFF6000000072
:100F20000000000000000000FFFF60000000000063
:100F30000000000000007FFFC00000000000000073
:100F4000007800003FFFC00FC0FC000000000078E8
:100F500018001FFFC03FE1FF0000000000783C00C8
:100F60000FFFC07FF3FF8000000000783C0007FF08
:100F7000C0FFFFFFC000000000783C0003FFC1F885
:100F80007F87E00000000078000001FFC1F03F0310
:100F9000E00000000078000000FFC1E01E01E01F3B
:100FA0000003E0783C03F07FC1E01E01E07FC00F4A
:100FB000F8783C07FC3FC1E01E01E1FFE01FFC7830
:100FC0003C0FFE1FC1E01E01E3FFF03FFE783C1F17
:100FD000FE0FC1E01E01E3F3F83F3E783C3F3F07C0
:100FE000C1E01E01E7E0FC7C1F783C3E1F07C1E02A
:100FF0001E01E7C07C7C0F783C3C0F03C1E01E0162
:10100000E7807C780F783C3C0F03C1E01E01E7804D
:101010003C7800783C3C0F03C1E01E01E7803C783F
:1010200000783C3C0F03C1E01E01E7803C7800786B
:101030003C3C0F03C1E01E01E7C03C7800783C3C1B
:101040000F03C1E01E01E3E03C78007C3C3C0F0351
:10105000C1E01E01E3FF3FF8007FBC3C0F03C1E08D
:101060001E01E1FF3FF8003FBFFC0F03C1E01E017E
:10107000E0FF3FF8001FBFFC0F03C1E01E01E07F4F
:101080003FF8000FBFFC0F036000000000000000ED
:1010900000000000000760000000000000000000E9
:1010A00000000006700000000000000000000000CA
:1010B000000E380000000000000000000000001CCE
:1010C0001E000000000000000000000000780FFF7C
:1010D000FFFFFFFFFFFFFFFFFFFFFFF001FFFFFF2D
:1010E000FFFFFFFFFFFFFFFFFF8070012C0190015A
:1010F0002701B0012201C0011D01F00118011002F9
:10110000130130020E016002090190020401C002C5
:10111000FF000003FA004003F5008003F000D00355
:10112000EB002004E6007004E100E004DC00400570
:10113000D700C005D2004006CD00D006C800800709
:10114000C3003008BE00F008B900C009B400B00AFE
:10115000AF00B00BAA00D00CA500000EA000500FED
:101160009B00C01096005012910000148C00C01516
:101170008700B0178200B0197D00D01B7800001ED8
:10118000730040206E0090226900F0246400402724
:101190005F0090295A00E02B5500102E500020309F
:1011A0004B0010324600E033410090353C001037D0
:1011B000370070383200A0392D00B03A2800A03B2B
:1011C0002300603C1E00103D1900903D1400103EAD
:1011D0000F00703E0A00C03E0500003F0000403F87
:1011E000FBFF803FF6FFC03FF1FFE4B89DE6969914
:1011F000E79BB4E5BE84004520E59CA8206D6DC248
:10120000B300200820E59BA0E695B000200820E66A
:101210009C80E5A4A700200820E69C80E5B08F0014
:10122000E887AAE58AA8E68EA7E6B8A900E69C802A
:10123000E5B08FE7A7BBE58AA8E9809FE78E870026
:10124000E69C80E5B08FE8BF9BE69699E9809FE732
:101250008E8700E69C80E5A4A7E8BF9BE69699E907
:10126000809FE78E874500E69C80E5A4A7E8BF9BAA
:10127000E69699E9809FE78E875A00E69C80E5A470
:10128000A7E8BF9BE69699E9809FE78E875900E61D
:101290009C80E5A4A7E8BF9BE69699E9809FE78E2E
:1012A000875800E8BF90E58AA8004D3834004142D5
:1012B0005300504C4100E585B3E997ADE6ADA5E894
:1012C000BF9BE794B5E69CBA00E887AAE58AA8E543
:1012D0009B9EE58E9FE782B90047323800E9A284E1
:1012E000E783AD202420E596B7E598B400E9A28411
:1012F000E783AD202420E783ADE5BA8A00E9998D24
:10130000E6B8A900E9A284E783AD202400B212AEBA
:10131000127C3C3E5E2B3D3F2F5B5D3B2C2A225CCA
:101320000020746F6F206C6F6E6720657874727523
:1013300073696F6E2070726576656E7465640A00FD
:1013400020636F6C6420657874727573696F6E20AA
:1013500070726576656E7465640A00DB0FC93F457F
:10136000BCDA3F8FB30240FCF0274056946140FE48
:101370004B9B4084A5D840E0231841346A5641E88D
:1013800059974164DBD5416E271742B4B75542CE19
:101390001A9742C8AED542B5885A43D40684BFA630
:1013A0005FA7BF7443E0BF10B11AC01C2C58C0E83F
:1013B000F697C0B849D6C04E4E17C124D355C18048
:1013C0002497C1A0B5D5C1121A17C244AE55C27830
:1013D0001797C26CACD5C267885AC33F00E5889D99
:1013E000E5A78BE58C96E8AEBEE7BDAE00E5B7B2EB
:1013F000E58F96E6B688E68993E58DB0004D3235E7
:1014000000E69A82E5819CE4B8AD2E2E2E0045457B
:1014100050524F4D2056657273696F6E20E9949952
:10142000E8AFAF00454550524F4D20496E64657896
:1014300020E99499E8AFAF00454550524F4D204305
:10144000524320E99499E8AFAF00E5BFBDE795A509
:1014500000E5A48DE4BD8D006F70656E00545249A7
:10146000474745524544007A5F6D696E00795F6D6C
:10147000696E00785F6D696E005265706F72746995
:101480006E6720656E6473746F7020737461747519
:10149000730A00E5BD92E58E9FE4BD8DE5A4B1E839
:1014A000B4A5005761726E696E673A20486F6D6926
:1014B0006E672042756D702044697669736F722083
:1014C0003C20310A000000484200004842000080F1
:1014D000400202040000A0400000A04000000040C4
:1014E000FFFFFF2053697A653A200043616E6E6FFB
:1014F00074206F70656E207375626469722000538A
:101500004420496E6974204661696C00534420632D
:10151000617264206F6B0A006F70656E526F6F743A
:10152000206661696C65640A00766F6C756D652E66
:10153000696E6974206661696C65640A004E6F208B
:10154000534420636172640A004D3234004D3233DB
:10155000202573006F70656E206661696C65642C70
:101560002046696C653A200046696C652073656C9D
:1015700065637465640A0046696C65206F70656E0A
:1015800065643A2000454E4420535542524F55540D
:10159000494E450A002220706F730022207061724C
:1015A000656E743A2200535542524F5554494E4588
:1015B0002043414C4C207461726765743A2200E507
:1015C000AD90E5938DE5BA94E6BAA2E587BA0045F9
:1015D00078636565646564206D6178205355425277
:1015E0004F5554494E452064657074683A310A007D
:1015F00057726974696E6720746F2066696C653A0A
:101600002000667265736800646F696E67004E6FD4
:101610007720000000000000000000000000000033
:101620000048430000484300004843E8AEBEE7BD21
:10163000AEE5B7B2E4BF9DE5AD980053657474693B
:101640006E67732053746F726564202800656E7135
:1016500075657565696E672022006F6B0052657352
:10166000656E643A200020573A00E58AA0E783AD12
:10167000E4B8AD202E2E2E004520255300236465AE
:1016800066696E652044454641554C545F004B6485
:1016900020004B6920004B702000504944204175C8
:1016A000746F74756E652066696E69736865642110
:1016B0002050757420746865206C617374204B70C1
:1016C0002C204B6920616E64204B6420636F6E7325
:1016D00074616E74732066726F6D2062656C6F77D3
:1016E00020696E746F20436F6E66696775726174EE
:1016F000696F6E2E680A00504944204175746F74FA
:10170000756E65206661696C6564212074696D651C
:101710006F75740A000A20436C617373696320500B
:101720004944200A00204B643A2000204B693A20AB
:1017300000204B703A20002054753A2000204B7551
:101740003A2000206D61783A2000206D696E3A20C1
:101750000020643A200020626961733A20005049F9
:1017600044204175746F74756E6520737461727472
:101770000A00504944204175746F74756E65206687
:1017800061696C6564212054656D70657261747562
:10179000726520746F6F20686967680A00E887AA1D
:1017A000E58AA850494400504944204175746F743B
:1017B000756E65206661696C6564212042616420F4
:1017C0006578747275646572206E756D6265720AF3
:1017D000004572723A207574663820666F6E742008
:1017E0006E6F7420696E697469616C697A65642EC4
:1017F00000000C0F00FE00000000009A9A00080094
:1018000000000207070C0601C0C0000000C0C000B5
:101810000C0F00FE0000000000D0D0000AFF000006
:101820000B0B160C00FF0400FFE0108009000600FF
:101830001980E0600900090011006100000C0F0030
:10184000FE0000000000DEDE000AFF00000B0B16A9
:101850000C00FFF880A880F8E0A880F88023E0FA68
:10186000202220FA205220ABE0000C0F00FE0000E6
:10187000000000C4C4000AFF00000B0B160C00FFA0
:1018800011007FC01100FFE004003F8024803F80F2
:1018900024803F8060C0000C0F00FE0000000000AC
:1018A000D8D8000AFF00000B0B160C00FF0400FF45
:1018B000E000001F0011007FC040405F4051405FCA
:1018C0004040C0000C0F00FE0000000000F1F100DD
:1018D0000AFF00000B0B160C00FFF3E01200522071
:1018E000532052A07A400A40EAA00B200A0033E0BD
:1018F000000C0F00FE0000000000ECEC000AFF00EE
:10190000000B0B160C00FF7F80008010801100215F
:10191000003FE000200020FF20002000C0000C0F4E
:1019200000FE0000000000F1F1000AFF00000B0BB8
:10193000160C00FF440047C07C409740AD40254056
:10194000274024C02C20342023E0000C0F00FE0090
:1019500000000000CECE000AFF00000B0B160C00AA
:10196000FF7F804080428052804C8044804C805277
:101970008062A080608020000C0F00FE000000004C
:10198000009D9D000AFF00000B0B160C00FF23E0DA
:10199000FC8087E07A20CAA032A04AA0FEA04AA01C
:1019A00079404E20000C0F00FE00000000009191D5
:1019B000000AFF00000B0B160C00FF13E050805FC5
:1019C000E05220FEA012A056A05AA092A02140C62C
:1019D00020000C0F00FE00000000008484000AFFBD
:1019E00000000B0B160C00FFFBE0108063E02220D0
:1019F000FAA02AA022A022A022A021406620000C4A
:101A00000F00FE0000000000F9F9000AFF00000BC3
:101A10000B160C00FF07E0F90027E0242025202505
:101A20002025203D20C18002400C20000C0F00FE2C
:101A30000000000000F5F5000AFF00000B0B160C7B
:101A400000FFFFE004003F80208024802480248069
:101A50002680090010C06040000C0F00FE0000004E
:101A60000000E2E2000AFF00000A0B160C01FFFF73
:101A7000C008001000FFC092409E4092409E4092DD
:101A800040FFC08040000C0F00FE0000000000E09E
:101A9000E0000AFF00000B0B160C00FF24003FC003
:101AA0004400FFE020803F800A00FBE00A00FBE0EA
:101AB0000A00000C0F00FE0000000000DEDE000A3D
:101AC000FF00000B0B160C00FF0A000A00FBE00AE7
:101AD000000A007BC00A000A00FBE00A000A0000BE
:101AE0000C0F00FE0000000000D2D2000AFF000030
:101AF0000B0B160C00FF04007FC004003F800400A5
:101B0000FFE010801F8010801F801080000C0F00ED
:101B1000FE00000000008080000AFF00000B0B1692
:101B20000C00FF7FC00400FFE0B5A00400FFE00848
:101B3000007FC04A404A404AC0000C0F00FE00002F
:101B4000000000F6F6000AFF00000B0B160C00FF69
:101B50007FC00400FFE095200E003180C4603F800C
:101B600001000E000300000C0F00FE00000000004A
:101B7000E9E9000AFF00000B0B160C00FFF10092D0
:101B800080A440C820A7C090009A40D540A54080BE
:101B9000808FE0000C0F00FE0000000000E4E40075
:101BA0000AFF00000B0B160C00FFF1009280A4400E
:101BB000CBA0A1009FE09100E54089209120830007
:101BC000000C0F00FE0000000000D0D0000AFF0053
:101BD000000B0B160C00FFF7C09440A7C0C440A731
:101BE000C095009520D540A48085408620000C0F2C
:101BF00000FE0000000000CDCD000AFF00000B0B2E
:101C0000160C00FFF20093E0A640C180A660910090
:101C100097E0D500AFE081008100000C0F00FE00CE
:101C2000000000008888000AFF00000B0B160C0063
:101C3000FF27E0112082A0BFE08220BAA0AAA0B9AD
:101C4000208120BAA08460000C0F00FE000000007C
:101C500000F4F4000AFF00000A0B160C01FF4FC04D
:101C6000204080409E4092409E40924092409E4044
:101C7000804081C0000C0F00FE0000000000F2F266
:101C8000000AFF00000B0B160C00FF4FE020208421
:101C9000208420BFA084208E209520A4A0842080B2
:101CA000E0000C0F00FE0000000000EDED000AFF58
:101CB00000000B0B160C00FF47E020208220822042
:101CC000BFA086208A209220A220862080E0000CDF
:101CD0000F00FE0000000000FFFF000AFF00000AE6
:101CE0000B160C01FF21002200240028003000FF09
:101CF000C0280024002200290030C0000C0F00FE84
:101D00000000000000DCDC000AFF00000B0B160CDA
:101D100000FF41004FE072808FE0F44027C0F440A4
:101D200027C02A8032A02C60000C0F00FE000000AB
:101D300000009999000AFF00000B0B160C00FF42EF
:101D4000804FE072808280EFE04000F7C04440475F
:101D5000C0544067C0000C0F00FE0000000000AE41
:101D6000AE000AFF00000B0B160C00FF400047C03E
:101D700079408140F94027C0FA4022402A40324051
:101D80002FE0000C0F00FE00000000008888000A11
:101D9000FF00000B0B160C00FF4080408078808015
:101DA00080FBE02080F88020802880308020800028
:101DB0000C0F00FE0000000000CFCF000AFF000063
:101DC0000B0B160C00FF3F8020803F802080FFE03F
:101DD00024803F8024807FC00400FFE0000C0F00BF
:101DE000FE0000000000CDCD000AFF00000B0B1626
:101DF0000C00FF7FC00400FFE024803F8024803F70
:101E00008004007FC00400FFE0000C0F00FE000013
:101E1000000000CACA000AFF00000B0B160C00FFEE
:101E20001FC0E280A9007280FD6031006FC0A10078
:101E3000AFE021002100000C0F00FE0000000000B8
:101E4000CDCD000AFF00000B0B160C00FFFBE0508D
:101E5000205020F820ABE0DA008A00FA008A20FA4D
:101E6000208BE0000C0F00FE0000000000E8E800FE
:101E70000AFF00000B0B160C00FF11E0FF204520AD
:101E80002940FF8001407D20452045A07D40450040
:101E9000000C0F00FE00000000009F9F000AFF00E2
:101EA000000B0B160C00FF41003FE021000FE0E9A2
:101EB000202FE023802540292051008FE0000C0FC7
:101EC00000FE00000000008989000AFF00000B0BE3
:101ED000160C00FF4500250027C00900EFE0228016
:101EE00022A024A0286050008FE0000C0F00FE000C
:101EF000000000008080000AFF00000B0B160C00A1
:101F0000FF8FC048404FC00840CFC048004B4048FA
:101F1000804E40B0008FE0000C0F00FE000000007B
:101F200000F7F7000AFF00000B0B160C00FF410042
:101F3000292025400100EFE02100238025402920B1
:101F400051008FE0000C0F00FE0000000000DEDEFC
:101F5000000AFF00000B0B160C00FF42002FE022CE
:101F6000000500EFC021002FE02100210051008F6B
:101F7000E0000C0F00FE0000000000DBDB000AFFA9
:101F800000000B0B160C00FF448024802FC004803F
:101F9000E4803FE024802480288050808FE0000C83
:101FA0000F00FE0000000000D8D8000AFF00000B60
:101FB0000B160C00FF4FE0208021000100E34025BC
:101FC0002029202100210050008FE0000C0F00FE8E
:101FD0000000000000D4D4000AFF00000B0B160C18
:101FE00000FF40602780240007E0E6202540248091
:101FF0002940262050008FE0000C0F00FE0000005A
:102000000000D0D1000AFF00000B0B160C00FF47A8
:10201000C0200020000FE0E200228024402FA024F6
:102020002050008FE00B0B160C00FF40C02700244F
:102030000007E0E480248024802480288050008FE2
:10204000E0000C0F00FE0000000000C1C1000AFF0C
:1020500000000B0B160C00FF40C027002100010000
:10206000EFE0210021002100210050008FE0000C52
:102070000F00FE0000000000B9B9000AFF00000BCD
:102080000B160C00FF410021002FE00120E1202170
:10209000202220242028C050008FE0000C0F00FEDA
:1020A00000000000009393000AFF00000B0B160CC9
:1020B00000FF41004280F4404BA0A000FE202AA077
:1020C0003EA0EAA02EA02A60000C0F00FE00000037
:1020D00000009191000AFF00000B0B160C00FF237B
:1020E000C0FA4043C06000A7E0FA4023403AC0E293
:1020F000602FC02040000C0F00FE0000000000FD1B
:10210000FD000AFF00000B0B160C00FF11007D40C4
:102110001120FFE02100FD2051407C8010A0FD60D7
:102120001220000C0F00FE0000000000F4F4000A72
:10213000FF00000B0B160C00FF2080F88047E064C6
:10214000A0A4A0FCA027E03CA0E4A027E02420005D
:102150000C0F00FE0000000000EFEF000AFF00007F
:102160000B0B160C00FF42004200FBE04220A54092
:10217000F90021003A80E28024402820000C0F0062
:10218000FE0000000000ECEC000AFF00000B0B1644
:102190000C00FF2100F7C041006FE0A200F7C02053
:1021A000403A80E10020802080000C0F00FE0000FB
:1021B000000000DDDD000AFF00000B0B160C00FF25
:1021C0007BE04A004A007BE0122052205A2053E074
:1021D00052005E00E3E0000C0F00FE000000000073
:1021E0008585000AFF00000B0B160C00FF17C011BD
:1021F000407D4012C0FC0013C05E40524073C09846
:102200000087E0000C0F00FE0000000000F7F70060
:102210000AFF00000B0B160C00FF100013C07C40DF
:102220001040FFC0120052205E2053E0B0008FE04B
:10223000000C0F00FE0000000000AAAA000AFF0028
:10224000000B0B160C00FF04000A003580DF600154
:10225000003F80248024802A80110060C0000C0F81
:1022600000FE0000000000A5A5000AFF00000B0B07
:10227000160C00FFF9008900A9E0A940AB40AD4071
:10228000A9402140508049408A20000C0F00FE00E8
:10229000000000008383000AFF00000B0B160C00F7
:1022A000FF4FE029200BA0E9202FE028202BA02AB7
:1022B000A03BA0282010E0000C0F00FE0000000052
:1022C00000FBFB000AFF00000B0B160C00FF410097
:1022D00027C00100EFE022A0258022802FE031807E
:1022E00022400C20000C0F00FE0000000000F7F759
:1022F000000AFF00000B0B160C00FF41002FE0212D
:102300000007C0E1002FE0244027C0244037C0244C
:1023100040000C0F00FE0000000000EFEF000AFF7D
:1023200000000B0B160C00FF47C02440044007C000
:10233000E00027C021002FE0328024400820000C5C
:102340000F00FE0000000000D5D5000AFF00000BC2
:102350000B160C00FF414021201FE00100EF00257B
:1023600000250024A026A038602020000C0F00FECD
:102370000000000000BEBE000AFF00000B0B160CA0
:1023800000FF47802480048008E0E0002FC0244044
:102390002280310022801C60000C0F00FE00000033
:1023A0000000AEAE000AFF00000B0B160C00FF424F
:1023B00000214005400440E4402280228029003270
:1023C0008024400820000C0F00FE0000000000A147
:1023D000A1000AFF00000B0B160C00FF41002100BA
:1023E00001000FE0E100210021002900310021005F
:1023F0000100000C0F00FE0000000000D2D2000A15
:10240000FF00000A0B160C00FF10001F0022007FC7
:10241000C0A4403FC024403FC024404540808000CD
:102420000C0F00FE00000000008181000AFF000088
:102430000B0B160C00FFFFE00A007FC04A407FC074
:102440000800FFE011003A000F0070C0000C0F0000
:10245000FE0000000000C5C5000AFF00000B0B16BF
:102460000C00FF11009FE051003100D7C01200FFA7
:10247000E00C403280D10018E0000C0F00FE00009C
:10248000000000ABAB000AFF00000B0B160C00FFB6
:1024900040802080FFE014A02C8077E0AD402540F4
:1024A000248029403620000C0F00FE0000000000B0
:1024B000CCCC000AFF00000B0B160C00FF27C0401D
:1024C00000800010002FE06080A08020802080200D
:1024D000802380000C0F00FE0000000000C7C70032
:1024E0000AFF00000B0B160C00FF2100208027E0E4
:1024F000FC20AA00AA40FB8022002A203A20C9E042
:10250000000C0F00FE0000000000DDDD000AFF00EF
:10251000000B0B160C00FF1100FFE01100520053DE
:10252000C0550010807FC04A404A40FFE0000C0FB9
:1025300000FE0000000000DCDC000AFF00000B0BC6
:10254000160C00FF1100FFE0110001C07E80288002
:102550001500FFE015002480C460000C0F00FE0091
:1025600000000000F3F3000AFF00000B0B160C0044
:10257000FF7FC00800110020807FC0040004003FDE
:102580008004000400FFE0000C0F00FE00000000CB
:1025900000EAEA000AFF0000070B0B0C02FF20FE16
:1025A0008282FE82FE8282FE82000C0F00FE00000C
:1025B000000000FDFD000AFF00000B0B160C00FFE1
:1025C00021004940FD8001207DE044007D404580A0
:1025D0007D2045204DE0000C0F00FE0000000000B3
:1025E000EAEA000AFF00000B0B160C00FF0440FA99
:1025F0008057C05440744057C071005AA0F6A01ACA
:102600004011C0000C0F00FE000000000085850096
:102610000AFF00000B0B160C00FF04003F40048073
:102620000500FFE008003F80D0801F8010801F80E1
:10263000000C0F00FE0000000000F2F2000AFF0094
:10264000000B0B160C00FF7FE049207FE004403FA9
:10265000800500FFE03080DF8010801F80000C0FBD
:1026600000FE0000000000EEEE000AFF00000B0B71
:10267000160C00FF7FC04A407FC00400FFE02080AE
:102680003F8020803F802080FFE0000C0F00FE0094
:1026900000000000D1D1000AFF00000A0B160C0157
:1026A000FFFFC080409140D540A2409240AD40C560
:1026B000408840804081C0000C0F00FE00000000F8
:1026C00000BABA000AFF00000B0B160C00FF410015
:1026D00041007BC0A1402140FFE02100A900AA8069
:1026E000FA400420000C0F00FE0000000000969647
:1026F000000AFF00000B0B160C00FF21002FE04822
:10270000205FE0E8002FE04AA0FFE00AA03AA0C85E
:1027100060000C0F00FE0000000000FFFF000AFF39
:1027200000000B0B160C00FF27C0204043C0F040F8
:102730002FE04120F54003803540C9200300000C04
:102740000F00FE0000000000EDED000AFF00000B8E
:102750000B160C00FF210027C0410057E0E4A02A1F
:10276000804480EFE0010032C0CC20000C0F00FE5E
:102770000000000000EAEA000AFF00000B0B160C44
:1027800000FF210027A0494057E0E10023E0462058
:10279000F3E00A2033E0C220000C0F00FE0000002E
:1027A0000000E7E7000AFF00000B0B160C00FF24F7
:1027B0008026A045C05480E7E0248045C0F6A004F0
:1027C000803480C7E0000C0F00FE0000000000DF36
:1027D000DF000AFF00000B0B160C00FF21002FE0AA
:1027E00042005440EFE022A04280F28002A034A0D8
:1027F000C8E0000C0F00FE0000000000D9D9000A5C
:10280000FF00000B0B160C00FF210021004280543A
:1028100040E82027C04000F7C00C403440C7C0004B
:102820000C0F00FE0000000000D3D3000AFF0000E0
:102830000B0B160C00FF210021004FE05100E7C0F8
:10284000200047C0F4400C4037C0C440000C0F00CB
:10285000FE0000000000C8C8000AFF00000B0B16B5
:102860000C00FF220023C05440EA8021004280EC8B
:1028700060010030C0C30000C0000C0F00FE00006B
:10288000000000C6C6000AFF00000B0B160C00FF7C
:10289000200027E044A054A0E4A027E044A0F4A036
:1028A00004A037E0C420000C0F00FE000000000070
:1028B000BFBF000AFF00000B0B160C00FF22802296
:1028C0004043C04E00E3E02E004240F28009203237
:1028D000A0CC60000C0F00FE0000000000A7A700C5
:1028E0000AFF00000B0B160C00FF2FC022404A40CD
:1028F0005280E2E022204220F5400C803540CA2080
:10290000000C0F00FE0000000000A2A2000AFF0061
:10291000000B0B160C00FF200027C041005100E106
:102920000021004100F10001003100CFE0000C0F58
:1029300000FE0000000000ABAB000AFF00000B0B24
:10294000160C00FF110051405D805120FDE0088011
:102950003F0008807FC02480CC60000C0F00FE0088
:1029600000000000A2A2000AFF00000B0B160C00E2
:10297000FF04007FC00400FFE091203E0008807F3C
:10298000C004402480CC60000C0F00FE000000005A
:1029900000FBFB000AFF00000B0B160C00FF24805D
:1029A0001500FFE01500248040400400FFE00A000D
:1029B0001100E0E0000C0F00FE0000000000B1B1CB
:1029C000000AFF00000B0B160C00FF21003DE04A3F
:1029D0008094407FC012403BC0564093C0124013C9
:1029E000C0000C0F00FE00000000008080000AFF05
:1029F00000000B0B160C00FF42007BE0948027C008
:102A000050404F4049404F4049404F4040C0000C6B
:102A10000F00FE0000000000C9C9000AFF00000B03
:102A20000B160C00FF42007BE094807FC00400FF87
:102A3000E001007FC0110009000300000C0F00FE40
:102A40000000000000ACAC000AFF00000B0B160CED
:102A500000FF42007BE05480BFC004407FC04400C0
:102A60007FE0142024C0C400000C0F00FE00000012
:102A70000000EFEF000AFF00000B0B160C00FF81B7
:102A8000004520F7E00000AFE0A100AFE04AA06AF7
:102A9000A08AA00860000C0F00FE0000000000FAF1
:102AA000FA000AFF00000B0B160C00FF04007FE089
:102AB00040208900108060401F8004000400040052
:102AC0007FE0000C0F00FE0000000000FBFB000A8E
:102AD000FF00000B0B160C00FF1100E3E02420FAAE
:102AE000402180368029E06220A540208027000018
:102AF0000C0F00FE0000000000BBBB000AFF00003E
:102B00000B0B160C00FF0400FFE02A8024802A80B3
:102B10003F8004007FC049405F4040C0000C0F0070
:102B2000FE0000000000EEEE000AFF00000B0B1696
:102B30000C00FF0200F3C024804FE0F52057E05561
:102B40002057E0752045200860000C0F00FE0000B3
:102B5000000000A0A0000AFF00000B0B160C00FFF5
:102B600007E0F42097E0F480948097E0F48094806C
:102B7000F4A096600420000C0F00FE00000000008E
:102B80008181000AFF00000B0B160C00FF040014EB
:102B900080256046201F803080DF8010801F8010DD
:102BA000801F80000C0F00FE0000000000F4F40005
:102BB0000AFF00000B0B160C00FF0400FFE00400EE
:102BC0003F8020803F8020803F8020802080FFE069
:102BD000000C0F00FE0000000000D1D1000AFF0031
:102BE000000B0B160C00FF0A004A004BE04A004C99
:102BF00080484008007FC04A404A40FFE0000C0F78
:102C000000FE00000000008484000AFF00000A0BA0
:102C1000160C01FF22004200F7C098409040F4409B
:102C2000924092409040F0409180000C0F00FE00D6
:102C300000000000FDFD000AFF0000080B0B0C0265
:102C4000FF1020FF8181FF818181FF81000C0F0037
:102C5000FE0000000000E5E5000AFF00000B0B1677
:102C60000C00FF0200FBC0AE40A980FA40AC20ABD4
:102C7000C0AA40FA408BC00240000C0F00FE0000CA
:102C8000000000B5B5000AFF00000A0B160C01FF9A
:102C900008000800FF808880FF8088808880FF808F
:102CA0000840084007C0000C0F00FE0000000000B4
:102CB000A8A8000AFF00000A0B160C00FF7FC04402
:102CC0004044407FC0444044407FC044404440842E
:102CD0004084C0000C0F00FE0000000000AFAF00F9
:102CE0000AFF00000B0B160C00FF07E0F9002100A3
:102CF00023007380254025203920C10001000100F8
:102D0000000C0F00FE00000000008787000AFF0093
:102D1000000B0B160C00FF0400FFE0884052800CF3
:102D2000002A80DF400400FFE004000400000C0FD4
:102D300000FE0000000000F9F9000AFF00000B0B84
:102D4000160C00FF2100A7C0F100A100AFE0308009
:102D50006FE0A480228020802380000C0F00FE0002
:102D600000000000E9E9000AFF00000B0B160C0050
:102D7000FF2200A200A7E0FAA0A2A032A064A0A9AE
:102D8000202220252028C0000C0F00FE000000009B
:102D900000C7C7000AFF00000B0B160C00FF210044
:102DA000210021003FE0200020003F802080208083
:102DB00040808080000C0F00FE0000000000EDED60
:102DC000000AFF00000B0B160C00FF2200F7802208
:102DD0008032806680A38024A06860000052408911
:102DE00020000C0F00FE0000000000B9B9000AFF2F
:102DF00000000B0B160C00FF0400040007C00400C9
:102E00003F80208020803F80000052408920000CBD
:102E10000F00FE0000000000EFEF000AFF00000BB3
:102E20000B160C00FF100017E05480588050809063
:102E30008010801080288044808180000C0F00FE6C
:102E40000000000000C0C0000AFF00000B0B160CC1
:102E500000FF44803E8012E09EA053A03EA028A028
:102E6000DFA04A4052A06520000C0F00FE000000C9
:102E700000008F8F000AFF00000B0B160C00FF4FA5
:102E8000E028200FE098005FE029002FE0CDA04B64
:102E9000605DA04960000C0F00FE0000000000D142
:102EA000D1000AFF00000B0B160C00FF47C02440A6
:102EB000074085405FE0346027C0C44047C04440BD
:102EC00044C0000C0F00FE0000000000A2A2000A97
:102ED000FF00000B0B160C00FF444022800FE08225
:102EE00080444028203FE0CAA04AA04AA05FE000FA
:102EF0000C0F00FE00000000009090000AFF000090
:102F00000B0B160C00FF4FE028808BE04A201BE0E3
:102F10002A202BE0C8804AC054A069A0000C0F00F2
:102F2000FE0000000000B8B8000AFF00000B0B16FE
:102F30000C00FF488024E01F0088E05E202A402B20
:102F4000E0CA404A40524066C0000C0F00FE00003C
:102F5000000000A9A9000AFF00000B0B160C00FFDF
:102F600047C0244007C0944057C020002FE0CAA0AB
:102F70004AA04AA05FE0000C0F00FE000000000025
:102F80008585000AFF00000B0B160C00FF41002F87
:102F9000E0010097C051002FE02440C74045C044E5
:102FA0004044C0000C0F00FE0000000000F7F700D6
:102FB0000AFF00000B0B160C00FF4FC028400FC08B
:102FC00088405FC029202940CF8049204B204CE019
:102FD000000C0F00FE0000000000E1E1000AFF000D
:102FE000000B0B160C00FF41002540098082805425
:102FF0004029202540C580490042805C60000C0FBC
:1030000000FE00000000008888000AFF00000B0B93
:10301000160C00FF49202540810057E0142027E0CE
:103020002420C7E0442044204460000C0F00FE0030
:1030300000000000CBCB000AFF00000B0B160C00B9
:10304000FFBE2062A02AA0AAA06AA02AA02AA0C827
:10305000A05420622040E0000C0F00FE00000000A1
:1030600000C1C1000AFF00000B0B160C00FF82001C
:103070005FE0040088805FC020402A80CA804AA0A8
:103080004AA05260000C0F00FE0000000000BBBB15
:10309000000AFF00000B0B160C00FF40C027008148
:1030A000005FE01100210027C0C440444047C044F5
:1030B00040000C0F00FE00000000009797000AFF80
:1030C00000000B0B160C00FF4100250087C04900D3
:1030D00021003FE04280C28044A048A050E0000CA4
:1030E0000F00FE0000000000E8E8000AFF00000BEF
:1030F0000B160C00FF420021008FE051001100214F
:103100000027C0C100410041004FE0000C0F00FE4D
:103110000000000000E2E2000AFF00000B0B160CAA
:1031200000FF410021008FE0492019002FC02840F6
:10313000CA80490052806C60000C0F00FE00000045
:103140000000A1A1000AFF00000B0B160C00FF47B6
:10315000802480848048E010002FC024804280C3F7
:103160000044805860000C0F00FE0000000000D4F6
:10317000D4000AFF00000A0B160C01FF8400840033
:1031800084808500F600840084008400B440C4403C
:1031900083C0000C0F00FE0000000000E5E5000AFF
:1031A000FF00000B0B160C00FF040027C0240024B6
:1031B00000FFE004001440248041000600F80000F5
:1031C0000C0F00FE0000000000E2E3000AFF000018
:1031D0000A0B160C01FF04000400040024002780E1
:1031E00024002400240024002400FFC00B0A140C37
:1031F00000FFFFE004000400240027C02400240096
:1032000024002400FFE0000C0F00FE00000000007E
:10321000D9D9000AFF00000B0B160C00FF2F402A23
:10322000A0F44027C0382027C06440A7C024402213
:10323000802FE0000C0F00FE0000000000A1A100A4
:103240000AFF00000B0B160C00FF22802FE0F2801B
:1032500027C034406FC06440AFE0210022802C6062
:10326000000C0F00FE0000000000FDFD000AFF0042
:10327000000B0B160C00FF22802FE0FAA02FE02A93
:10328000A03FE06440A7C0244027C02440000C0FAA
:1032900000FE0000000000C0C0000AFF00000B0B91
:1032A000160C00FF21002280FC40282027C070005F
:1032B0006920A4A0224022802FE0000C0F00FE0015
:1032C00000000000AFAF000AFF00000B0B160C005F
:1032D000FF2440228027C0F94027C075006FE0A37B
:1032E00020252029C02100000C0F00FE0000000056
:1032F00000BCBC000AFF00000B0B160C00FF2200F4
:1033000023C0F4402A80210072806C60A7C0244052
:10331000244027C0000C0F00FE0000000000A1A107
:10332000000AFF00000B0B160C00FF220021002FEB
:10333000E0F000228074406AA0A280210022802C4C
:1033400060000C0F00FE0000000000F1F1000AFF19
:1033500000000B0B160C00FF22002100FFE02100F3
:1033600071006900A7C0A100210021002FE0000C1E
:103370000F00FE00000000009797000AFF00000BFE
:103380000B160C00FF21002100FFE0210071006BF3
:1033900080A540A920210021002100000C0F00FE83
:1033A0000000000000FFFF000AFF00000B0B160CDE
:1033B00000FF20C02700FC00240027C074406E409E
:1033C000A580288029403620000C0F00FE00000058
:1033D0000000E5E5000AFF00000B0B160C00FF04DF
:1033E000007FC024801500FFE004000E00150024BB
:1033F00080C4600400000C0F00FE0000000000E12B
:10340000E1000AFF00000B0B160C00FF10001F80EC
:10341000290046000A003580C4603F8015002480E2
:10342000DC40000C0F00FE0000000000DFDF000A9F
:10343000FF00000B0B160C00FF0400FFE004003F30
:1034400080248024803F800E0015002480C460000A
:103450000C0F00FE0000000000C0C0000AFF0000CA
:103460000B0B160C00FF208019000600190064C029
:103470000400FFE015002480C4600C00000C0F0065
:10348000FE0000000000BABA000AFF00000B0B1695
:103490000C00FF200027802480FC80248074806C36
:1034A00080A480A48028A030E0000C0F00FE000063
:1034B0000000009F9F000AFF00000B0B160C00FF8E
:1034C00049E0FD20492079E04920792049E0FD20AC
:1034D000012049208660000C0F00FE000000000063
:1034E0008989000AFF00000B0B160C00FF0800FF83
:1034F000E010001F8030805F8090801F801080105F
:10350000801180000C0F00FE000000000080800091
:103510000AFF00000B0B160C00FF3F8020803F804D
:103520002080FFE048007FC04A407980C9800E605B
:10353000000C0F00FE0000000000F4F4000AFF0081
:10354000000B0B160C00FF7FE002003FC022403F43
:10355000C022403FC00A0004001B00E0E0000C0F46
:1035600000FE0000000000ABAB000AFF00000B0BE8
:10357000160C00FF11E0FF0055E07D405540FFC0F4
:1035800010401FC010401FC01040000C0F00FE0074
:10359000000000008282000AFF00000B0B160C00E6
:1035A000FF2040FB805200FBE01280F4803F80202F
:1035B000803F8020803F80000C0F00FE0000000054
:1035C00000AFAF000AFF00000B0B160C00FF1F80BE
:1035D00010801F8010801F800000FFE024002780E3
:1035E00054008FE0000C0F00FE00000000008E8EE3
:1035F000000AFF00000B0B160C00FF03E0F2209204
:103600002093E0F220922093E0F220042008A030E2
:1036100040000C0F00FE0000000000F6F6000AFF5C
:1036200000000B0B160C00FF0080F0809FE09080E4
:103630009480F280928090809080F0800380000CD3
:103640000F00FE0000000000E0E0000AFF00000B99
:103650000B160C00FF7FC0040004000400FFE00A0A
:10366000000A00120012202220C1E0000C0F00FE10
:103670000000000000B9B9000AFF00000B0B160C97
:1036800000FF08000400FFE0080008000F80108021
:103690001080208040808700000C0F00FE0000009A
:1036A0000000B0B0000AFF00000B0B160C00FF106A
:1036B00060FD8045002900FDE01140FD40114055AE
:1036C0004092403440000C0F00FE0000000000ADAE
:1036D000AD000AFF00000B0B160C00FF1060D58038
:1036E000B9009100FDE0B140D940D5409140FA4089
:1036F0000440000C0F00FE00000000009C9C000A2B
:10370000FF00000B0B160C00FF1040294044C0B80E
:103710004012407D40106055C05240924030400001
:103720000C0F00FE00000000009999000AFF000045
:103730000B0B160C00FF2080AC8072802080FC8078
:10374000228030E06F80A08020802080000C0F005D
:10375000FE00000000008787000AFF00000B0B1628
:103760000C00FF08000400FFE01100110011000A26
:10377000000A0004001B00E0E0000C0F00FE000047
:10378000000000F4F4000AFF00000B0B160C00FF11
:103790001100FFE055407C80394056207FC0040076
:1037A00027802400FFE0000C0F00FE000000000056
:1037B000F2F2000AFF00000B0B160C00FF1080FE57
:1037C000E0008078804BE079400140FF40AA80BB58
:1037D000408620000C0F00FE0000000000F0F0000A
:1037E0000AFF00000B0B160C00FF95005900FDE0CE
:1037F000334059409540FD40294068801140EE20FB
:10380000000C0F00FE0000000000BEBE000AFF001A
:10381000000B0B160C00FF21001100FDE0224025DB
:103820004039402940288049804A409420000C0FAC
:1038300000FE0000000000B6B6000AFF00000B0BFF
:10384000160C00FF1200120093E094409A40924040
:10385000B280D100918012401420000C0F00FE00B5
:1038600000000000D2D2000AFF00000B0B160C0073
:10387000FF20C02700F1002FE0210035606920AD56
:103880006029202920EFE0000C0F00FE000000005E
:1038900000D0D0000AFF00000B0B160C00FF27C061
:1038A0002440FFC0244027C030006FE0A50025E081
:1038B0002B00F1E0000C0F00FE0000000000A7A7A5
:1038C000000AFF00000B0B160C00FF21002FE0F890
:1038D0002022802440382067C0A10021002100EF71
:1038E000E0000C0F00FE0000000000A5A5000AFF8C
:1038F00000000B0B160C00FF21002FE0F44022808B
:103900002FE031006FE0A24026802140EE20000C25
:103910000F00FE0000000000A2A2000AFF00000B42
:103920000B160C00FF2FE02820F2802440292031C4
:10393000006FE0A10025802940F120000C0F00FE5F
:1039400000000000008989000AFF00000B0B160C24
:1039500000FF210021E0F90027C02C4037C064405F
:10396000A7C021002FE0E100000C0F00FE000000C6
:103970000000E2E2000AFF00000B0B160C00FF2221
:103980000023C0FC8027C02D4035406FE0A10022FD
:10399000802440E820000C0F00FE0000000000DF43
:1039A000DF000AFF00000B0B160C00FF23C02240B3
:1039B000FBC020002FE034206520A5202520228098
:1039C000EC60000C0F00FE0000000000A4A4000A40
:1039D000FF00000B0B160C00FF210027E0FA40212E
:1039E000802E6030006240A24022402440E8400027
:1039F0000C0F00FE0000000000A1A1000AFF000063
:103A00000B0B160C00FF21002520FB4021002FE0AE
:103A100030206020A7E020202020EFE0000C0F00E5
:103A2000FE00000000008989000AFF00000B0B1651
:103A30000C00FF21002080FFE02520290037E062F4
:103A400040A64021802280EC60000C0F00FE0000A8
:103A5000000000E9E9000AFF00000B0B160C00FF54
:103A60002FE02240F98022402C20310067C0A100C5
:103A70002FE02100E100000C0F00FE00000000001C
:103A8000D4D4000AFF00000B0B160C00FF2280228A
:103A900040FFE022002BC032406540A480288029EE
:103AA00040E620000C0F00FE0000000000BDBD003D
:103AB0000AFF00000B0B160C00FF20802080F8800E
:103AC00027E02CA034A067E0A4A024A027E0E420F5
:103AD000000C0F00FE0000000000ACAC000AFF006C
:103AE000000B0B160C00FF21002100FA4027A02834
:103AF00020300067E0A420242027E0E420000C0F01
:103B000000FE0000000000A5A5000AFF00000B0B4E
:103B1000160C00FF27C02440FC4025802C0037E015
:103B20006540A54024802540E620000C0F00FE00E3
:103B3000000000009696000AFF00000B0B160C0018
:103B4000FF20402240F94020402A40314060E0AF51
:103B50004020402040E040000C0F00FE000000002C
:103B600000F9F9000AFF00000B0B160C00FF24807F
:103B70002480FC8024A02FC034806480A48025A0F1
:103B800026A0E460000C0F00FE0000000000E7E744
:103B9000000AFF00000B0B160C00FF22002200FFA2
:103BA0008022802A8036806280A7A024A0A8A0500E
:103BB00060000C0F00FE0000000000D3D3000AFFDD
:103BC00000000B0B160C00FF200027E0F88020807F
:103BD000288030806080A08020802080E380000CDE
:103BE0000F00FE0000000000CBCB000AFF00000B1E
:103BF0000B160C00FF03C07C0004007FC00400040F
:103C000000FFE00400040004000C00000C0F00FEA4
:103C10000000000000C7C7000AFF00000B0B160CD5
:103C200000FF04007FE040207FE040007DE0442072
:103C300054A04C6054A0A960000C0F00FE000000CE
:103C40000000C0C0000AFF00000B0B160C00FF189C
:103C500060638042007A004BE04A407A4042404232
:103C60004044408840000C0F00FE0000000000B7F8
:103C7000B7000AFF00000A0B160C00FF0400020048
:103C80003FC0204020403FC02000200020004000D6
:103C90008000000C0F00FE00000000008F90000A62
:103CA000FF00000B0B160C00FF02807A400A004F49
:103CB000E02A00124012802900412086A000600BFB
:103CC0000B160C00FF028002407FE0420042007AA7
:103CD000404A404A80492052A08460000C0F00FEF8
:103CE00000000000009F9F000AFF00000B0B160C55
:103CF00000FF01407FE041007F405D4052809DA079
:103D000082602440A2A09F80000C0F00FE000000F3
:103D10000000EFEF000AFF00000B0B160C00FF087D
:103D2000003F8020803F8020803F8020803F805463
:103D30004052A08F80000C0F00FE0000000000E247
:103D4000E2000AFF00000B0B160C00FF22002FE020
:103D5000B200AA80A480A5A02AC0308021402240C1
:103D60002420000C0F00FE0000000000BBBB000A76
:103D7000FF00000B0B160C00FF11000A003F802013
:103D80008020803F802080044052A050A08F80007F
:103D90000C0F00FE0000000000A7A7000AFF0000B3
:103DA0000B0B160C00FF21002500B500AFE0A900A9
:103DB000B10027C02100210021002FE0000C0F00DE
:103DC000FE0000000000FDFD000AFF00000B0B16C6
:103DD0000C00FF20003FC02A404A40144028400504
:103DE00080124050A050A08F80000C0F00FE0000F9
:103DF000000000C3C3000AFF00000B0B160C00FFFD
:103E0000040002001200120010405020502050A068
:103E1000908010800F80000C0F00FE00000000005A
:103E2000AEAE000AFF00000B0B160C00FF2A806AE2
:103E300080BE8001E05D40C3405D405480568055A7
:103E4000406220000C0F00FE0000000000AAAA0043
:103E50000AFF00000B0B160C00FF1FE028804FE04C
:103E600098802BE06A20ABE02A202BE02A2033E068
:103E7000000C0F00FE00000000008485000AFF0017
:103E8000000B0B160C00FF17C02080490092802405
:103E9000406820A7C02100210021002FE00B0B1655
:103EA0000C00FF1100210047C091001FE020806F2F
:103EB000E0A480228020802180000C0F00FE000002
:103EC000000000D2D2000AFF00000A0B160C01FF0E
:103ED000100017C090409040904097C09040904094
:103EE00020404FC08040000C0F00FE00000000008A
:103EF000B9B9000AFF00000B0B160C00FFE44022CA
:103F0000802FE0E9208FE08920EFE021002FE0A161
:103F1000004100000C0F00FE00000000009595001D
:103F20000AFF00000A0B160C01FFFC40044004408D
:103F30007C404040FC400440044004402840104085
:103F4000000C0F00FE00000000008F8F000AFF0031
:103F5000000B0B160C00FF028002400200FFE00283
:103F6000007A0012001100112018A0E060000C0F70
:103F700000FE00000000008383000AFF00000B0B1E
:103F8000160C00FF0400FFE0080010803FC0110085
:103F9000FFE01100110021004100000C0F00FE00A5
:103FA000000000008080000AFF00000B0B160C00D0
:103FB000FF7FC01100110011001100FFE01100216E
:103FC00000210041008100000C0F00FE00000000F5
:103FD00000A6A6000AFF00000B0B160C00FF040051
:103FE0007FE049007FC049004F0040005F804900EA
:103FF0008600B9C0000C0F00FE00000000009F9F6B
:10400000000AFF00000B0B160C00FF02003FE02A25
:10401000802A403FE0240027C02A40318042408C63
:1040200020000C0F00FE00000000009494000AFF26
:1040300000000B0B160C00FF040002007FE04000A4
:10404000444052404A404880408081009FE0000C3C
:104050000F00FE00000000008A8A000AFF00000B2B
:104060000B160C00FF02007FE0420042007FE0429E
:104070000047004A805240A2208200000C0F00FE40
:104080000000000000F6F6000AFF00000B0B160C03
:1040900000FF208011007FC0110011001100FFE01F
:1040A0001100110021004100000C0F00FE00000073
:1040B0000000F3F3000AFF00000B0B160C00FF7F5B
:1040C000C00400248015000400FFE0040004000484
:1040D0000004000400000C0F00FE0000000000F2CD
:1040E000F20009FF00000A0A140C01FFFF000100A2
:1040F00001008100FF0080008040804080407FC040
:10410000000C0F00FE0000000000EEEE000AFF00B1
:10411000000B0B160C00FF10800900FFE004007F6D
:10412000C00800FFE010002F804200BFE0000C0F2D
:1041300000FE0000000000E5E500090000000B099A
:10414000120C00007FC004000400040004000400FE
:1041500004000400FFE0000C0F00FE00000000005F
:10416000CFCF000AFF00000B0B160C00FF3FE02032
:10417000203FE0284024803FE024803FE024804826
:10418000809080000C0F00FE0000000000B1B10024
:104190000AFF00000B0B160C00FF1100FD40012070
:1041A0007FE04A807A8012805AA056A092A03460A4
:1041B000000C0F00FE00000000008F8F000AFF00BF
:1041C000000B0B160C00FF040004000400248024E4
:1041D00040444044208420040014000800000C0FD8
:1041E00000FE00000000008686000AFF00000B0BA6
:1041F000160C00FF220027C0A4806B0022802480C0
:104200006FE0A480228020802180000C0F00FE003F
:1042100000000000F9F9000AFF00000B0B160C006B
:10422000FF0080F0801FE09080508024802280502A
:1042300080508082800100000C0F00FE0000000012
:1042400000ABAB000AFF00000A0B160C01FF0800D0
:10425000FFC080403F0021003F0000007F80408081
:104260007F804080000C0F00FE0000000000A2A232
:10427000000AFF00000A0B160C01FF0800FFC090A7
:10428000403F0052008C003300FFC0210021003F5E
:1042900000000C0F00FE00000000009A9A000AFFC8
:1042A00000000B0B160C00FF04007FE04020804054
:1042B0003FC0040024002780240054008FE0000C3D
:1042C0000F00FE00000000008C8C000AFF00000BB5
:1042D0000B160C00FF04007FE040209F4000007F91
:1042E000E00A0012001220222041E0000C0F00FE24
:1042F00000000000008989000AFF00000B0B160C6B
:1043000000FF04007FE0402088400800FFE011002B
:1043100031000E0009807060000C0F00FE000000EC
:104320000000D8D8000AFF00000B0B160C00FF0895
:1043300000FFE010002FC020806100BFE0210021BD
:104340000021002700000C0F00FE0000000000D03C
:10435000D0000AFF00000B0B160C00FF3F8001008D
:10436000020004000400FFE0040004000400140044
:104370000800000C0F00FE0000000000CBCB000A7C
:10438000FF00000B0B160C00FF21002100FA402A51
:10439000202FE0480053E032202A204BE08220000A
:1043A0000C0F00FE0000000000FDFD000AFF0000F1
:1043B0000B0B160C00FF200023E0F840288028801B
:1043C0004FE050803080288048808380000C0F00B0
:1043D000FE0000000000B4B4000AFF00000B0B1642
:1043E0000C00FF12000A00220012000200FFE0028F
:1043F000000500088010406020000C0F00FE000047
:10440000000000B1B1000AFF00000B0B160C00FF0A
:10441000240024003FC044000400FFE004000A0020
:1044200011002080C060000C0F00FE0000000000A2
:10443000A9AA000AFF00000B0B160C00FF7FC004A6
:104440000004000400FFE004000A000A001100203C
:1044500080C0600B0B160C00FF040004000400FF7A
:10446000E004000A000A00110019002480C4600062
:104470000C0F00FE0000000000A7A7000AFF0000CC
:104480000B0B160C00FF040004000400FFE0040006
:1044900004000A000A0011002080C060000C0F0018
:1044A000FE00000000009A9A000AFF0000090B16A7
:1044B0000C01FF08001F00210052000C003400CF47
:1044C00080108069000600F800000C0F00FE00005C
:1044D0000000009696000AFF00000B0B160C00FF70
:1044E000210021003D0025004580A540192009003C
:1044F000110021004100000C0F00FE000000000030
:104500008D8D000AFF00000B0B160C00FF20003FF2
:10451000E06080BF8020803F8010003F80C900069F
:1045200000F9E0000C0F00FE00000000008787008B
:104530000AFF00000B0B160C00FF10001F8031005B
:104540004E000B0030E0FF8024803F8024803F80BD
:10455000000C0F00FE0000000000F3F3000AFF0053
:10456000000B0B160C00FF0400FFE004003FC0002E
:1045700000FFE080201F0011202120C0E0000C0F70
:1045800000FE0000000000EBEB000AFF00000B0B38
:10459000160C00FF21002FE02100F7C02440274027
:1045A00025C03440EFE002800C60000C0F00FE00DC
:1045B00000000000ABAB000AFF00000B0B160C0064
:1045C000FF2200FF80228036A0E3A02CE0640004DC
:1045D000003FC00400FFE0000C0F00FE00000000E0
:1045E000008B8B000AFF00000B0B160C00FF7E40B7
:1045F00029402940FF40294028404CC004003F800A
:104600000400FFE0000C0F00FE0000000000D7D700
:10461000000AFF00000B0B160C00FF2100210027F1
:10462000C0F940214021402FE03100C280044018F1
:1046300020000C0F00FE0000000000CFCF000AFF9A
:1046400000000B0B160C00FF20002FE02080F880EC
:104650002100218023403520C92001000100000CE9
:104660000F00FE0000000000A8A8000AFF00000ADA
:104670000B160C01FF08000800FFC01000220062AA
:1046800000AF802200220022003FC0000C0F00FE7D
:104690000000000000FEFE000AFF00000A0B160CDE
:1046A00001FFFFC090409F40B240CC409240E9C023
:1046B000844088408440FFC0000C0F00FE000000D2
:1046C0000000FAFA000AFF00000A0B160C01FFFFB7
:1046D000C088408840FF408840BE40A240A240BE03
:1046E000408040FFC0000C0F00FE0000000000E012
:1046F000E0000AFF00000B0B160C00FFFFE0842017
:104700008420BFA0842084208A209120A0A0802023
:10471000FFE0000C0F00FE0000000000DEDE000ADB
:10472000FF00000A0B160C01FFFFC0804080409E76
:1047300040924092409E4092408040FFC0804000A6
:104740000C0F00FE0000000000F4F4000AFF00005F
:104750000B0B160C00FF0100EFE0A540AFE0A440FA
:10476000A7C0E44007C0044007C00C60000C0F0065
:10477000FE0000000000E8E8000AFF00000B0B1636
:104780000C00FF7BC04A404A407BC00480FFE01120
:1047900000FBE04A404A407BC0000C0F00FE0000D6
:1047A000000000B4B4000AFF00000B0B160C00FF61
:1047B00002A0EBC0AAA0BFE0A480AFE0F9200FE008
:1047C00009200FE01120000C0F00FE000000000087
:1047D000B7B7000AFF00000B0B160C00FF0100EF3B
:1047E000E0A540AFE0A440AFE0E820A92009200206
:1047F000800C60000C0F00FE0000000000CDCD001A
:104800000AFF00000B0B160C00FF01000200EFE096
:10481000A820ABA0AAA0AAA0EBA0082008200860AE
:10482000000C0F00FE00000000008C8C000AFF004E
:10483000000B0B160C00FF0C00700011E0FD2011A6
:1048400020392035205520912011E01000000C0F58
:1048500000FE0000000000FDFD000AFF00000B0B41
:10486000160C00FF04000A001100EEE000007BC0FF
:104870004A404A407A404AC00200000C0F00FE0045
:1048800000000000E8E8000AFF00000B0B160C0017
:10489000FF3FE022202FA022203FE020202FA02851
:1048A000A04FA040208060000C0F00FE0000000020
:1048B00000CACA000AFF00000B0B160C00FF240000
:1048C00024003FC044000400FFE000003F8020803F
:1048D00020803F80000C0F00FE0000000000AFAF02
:1048E000000AFF00000A0B160C00FF04003FC02066
:1048F0004020403FC020003FC0304050405FC0904B
:1049000040000C0F00FE0000000000A6A6000AFFF9
:1049100000000B0B160C00FFFFE004000D8034407C
:10492000C42004003FC0204020403FC02040000C75
:104930000F00FE00000000009191000AFF00000A35
:104940000B160C00FF08001000FFC080409E409234
:104950004092409E408040804081C0000C0F00FE8D
:1049600000000000008D8E000AFF00000A0B160CEC
:1049700000FF10001FC010802900460004001FC067
:10498000F040104010401FC00B0B160C00FF01C080
:104990003E0020003FE0200020002FC0284048407B
:1049A0004FC08840000C0F00FE0000000000888807
:1049B000000AFF00000B0B160C00FF04000A001198
:1049C000002080DF6000003F80208020803F80202A
:1049D00080000C0F00FE00000000008383000AFF2F
:1049E00000000B0B160C00FF0200F20097E098008D
:1049F00097C090809100F2009420042003E0000C06
:104A00000F00FE0000000000F0F0000AFF000009A7
:104A10000B160C01FF0800100022004100FF80006F
:104A2000807F004100410041007F00000C0F00FE2C
:104A30000000000000D8D8000AFF00000A0B160C86
:104A400001FF0800FFC012005280924000007F80EA
:104A500012000C001200E1C0000C0F00FE0000006C
:104A60000000D6D6000AFF00000B0B160C00FFFC5E
:104A7000004BE04A207A204940794048804C80F938
:104A8000400A400C20000C0F00FE0000000000CC8B
:104A9000CD000AFF00000B0A140C00FFFFE00A40E3
:104AA0004A402A401140114028804580824004201D
:104AB0000B0B160C00FF01C03E00200020003FC081
:104AC00028802500220045004880B060000C0F00BF
:104AD000FE00000000009F9F000AFF00000B0B1665
:104AE0000C00FF3FE022002FC028402FC028402F9D
:104AF000C022002A805260A620000C0F00FE000099
:104B00000000008B8B000AFF00000B0B160C00FF4F
:104B10003FE020002200220022003FC0220022802D
:104B200042404200BFE0000C0F00FE000000000009
:104B3000F8F8000AFF00000B0B160C00FF40007D88
:104B4000E091201120FF2011205D20512051A05D17
:104B500040E100000C0F00FE0000000000F4F40033
:104B60000AFF00000B0B160C00FF100011E07D2067
:104B700011201120FF20112021204D60750001001F
:104B8000000C0F00FE0000000000F0F1000AFF0022
:104B9000000A0B160C01FF1000E7C084408440F4AB
:104BA00040844084409440E580840004000B0B1650
:104BB0000C00FF10001F8021007FE020002F8028C4
:104BC0008028802B20482087E0000C0F00FE00008A
:104BD000000000E1E1000AFF00000B0B160C00FFD3
:104BE00008000F8008000800FFE008000A00090024
:104BF000088008000800000C0F00FE000000000004
:104C0000D5D5000AFF00000B0B160C00FF11000A9F
:104C1000007FC044407FC044407FC00400FFE004E8
:104C2000000400000C0F00FE0000000000CFCF00C9
:104C30000AFF00000B0B160C00FF420042004F80E1
:104C4000E28042804AC052A0448044804A805100A1
:104C5000000C0F00FE0000000000CACA000AFF009E
:104C6000000B0B160C00FF04004440248015007F4D
:104C7000C004000400FFE0040004000400000C0F66
:104C800000FE0000000000C7C7000AFF00000A0B7A
:104C9000160C01FF0D007100110011001100FFC082
:104CA00011001100210041008100000C0F00FE00E6
:104CB000000000009696000AFF00000B0B160C0087
:104CC000FF12001200224022806300A20026002A68
:104CD000002220222021E0000C0F00FE0000000036
:104CE00000A8A8000AFF00000B0B160C00FF010033
:104CF0007900010003E0FD20212021204920FA2035
:104D00000A2004C0000C0F00FE00000000009FA05D
:104D1000000AFF00000B0B160C00FF01000100F958
:104D20000027E02120212021203A20C22004201841
:104D3000C00B0B160C00FF20002000FDE0252025F5
:104D400020252025202520452055E08920000C0F16
:104D500000FE00000000009B9B000AFF0000090B02
:104D6000160C01FF080008000800FF80088008807A
:104D700010801080208040808700000C0F00FE0013
:104D800000000000F2F2000AFF00000B0B160C00FE
:104D9000FF1020FE2092A07CA010A07CA010A0FEFE
:104DA000A0442044207CE0000C0F00FE0000000026
:104DB00000B6B7000AFF00000B0B160C00FF102016
:104DC00050A07EA090A0FEA010A07EA052A05220D5
:104DD000562010E00B0B160C00FF7E2042207EA018
:104DE00048A048A07EA06AA0AAA0AAA02E2008E001
:104DF000000C0F00FE0000000000B0B0000AFF0031
:104E0000000B0B160C00FFFE20102020A044A0FE7B
:104E1000A010A07CA010A010201E20E0E0000C0F2D
:104E200000FE0000000000ABAB000AFF00000B0B0F
:104E3000160C00FF7C20442044A07CA010A0FEA003
:104E400012A022A0222042208CE0000C0F00FE00C5
:104E5000000000009D9D000AFF00000B0B160C00D7
:104E6000FF400027E0F920112021206920B12029EE
:104E7000202220242028C0000C0F00FE000000008B
:104E8000009B9B000AFF00000B0B160C00FF10207C
:104E9000182024A042A0BCA024A024A038A0222036
:104EA00022201E60000C0F00FE000000000086871C
:104EB000000AFF00000B0B160C00FF110011002070
:104EC0008020804040BFA00880088010802080C3E0
:104ED000000B0B160C00FF200027E021203920E1F9
:104EE000202120292032202220042008C0000C0F7D
:104EF00000FE0000000000FAFB000AFF00000B0BA0
:104F0000160C00FF04004440444044407FC00400AD
:104F10008420842084208420FFE00B0B160C00FFEB
:104F2000040004007FC004000400FFE004004440CB
:104F3000444044407FC0000C0F00FE000000000011
:104F4000C6C6000AFF00000B0B160C00FF0A008902
:104F5000004FE0590009002FC02900CFC049004987
:104F6000004FE0000C0F00FE0000000000B7B7008B
:104F70000AFF00000B0B160C00FF82004200050028
:104F80002880326041004FC080808700810000800F
:104F9000000C0F00FE000000000097970009FF00C2
:104FA000000B0A140C00FF7FE040209F401100110D
:104FB00000110011002120412080E0000C0F00FEB4
:104FC0000000000000F7F7000AFF00000B0B160CB2
:104FD00000FF3F8020803F8020803F8020803F80F6
:104FE0002080FFE01100E0E0000C0F00FE00000058
:104FF0000000F3F3000AFF00000B0B160C00FF206B
:105000008011007FC004000400FFC004000A0011EA
:10501000002080C060000C0F00FE0000000000F1C6
:10502000F1000AFF00000B0B160C00FF110011002D
:105030007FC0110011001100FFE00000110020806E
:105040004040000C0F00FE0000000000E8E8000AED
:10505000FF00000B0B160C00FF04000A00110020DB
:1050600080DF60040004001F00040004007FC00013
:105070000C0F00FE0000000000E5E5000AFF000044
:105080000B0B160C00FF18000400040004000A00BB
:105090000A0011001100208040408020000C0F0009
:1050A000FE0000000000C8C9000AFF00000B0B163C
:1050B0000C00FF040024003FC044008400FFE01205
:1050C00000120012202220C1E00B0B160C00FF047E
:1050D00000444024800400FFE0120012001220125D
:1050E000202220C1E0000C0F00FE0000000000C5DF
:1050F000C5000AFF00000A0B160C01FF0400FFC0E8
:10510000080011007F80128012001200224022400D
:10511000C1C0000C0F00FE0000000000CFCF000A4D
:10512000FF00000B0B160C00FF13C014802FE0359E
:105130002067E0A2202D4022802DC022A02D8000DB
:105140000C0F00FE0000000000A8A8000AFF0000ED
:105150000B0B160C00FF612057C0414077E0D100D7
:1051600053C0564053C05A40524043C0000C0F0039
:10517000FE0000000000DCDC000AFF00000B0B1644
:105180000C00FF22003FE020004FC04840DFE0500D
:10519000204FC0410041004700000C0F00FE0000FE
:1051A000000000CFCF000AFF00000B0B160C00FF21
:1051B00021002FE028202FE06800AFE02AA02FE098
:1051C0002AA03AA02860000C0F00FE00000000009A
:1051D000BEBE000AFF00000B0B160C00FF13E01907
:1051E000002BE02E206AA0AAA02AA02EA02AA0218F
:1051F000402620000C0F00FE0000000000BCBC0098
:105200000AFF00000B0B160C00FF11001FE022002C
:1052100027C06440A7C02440274025C024402FE079
:10522000000C0F00FE0000000000E1E1000AFF009A
:10523000000B0B160C00FF120011002FE02000677E
:10524000C0A00027C0200027C0244027C0000C0FAA
:1052500000FE0000000000DDDD000AFF00000B0B77
:10526000160C00FF17C01440244027C06100AFE0B7
:1052700021002380254029202100000C0F00FE0082
:1052800000000000B5B5000AFF00000B0B160C0073
:10529000FF2FC020404FC04040DFE050204FC044AF
:1052A00080430044805860000C0F00FE00000000A6
:1052B000009B9B000AFF00000B0B160C00FF1480E4
:1052C000148024802FE06480A4803FE020002480AC
:1052D00028403020000C0F00FE0000000000FFFFFF
:1052E000000AFF00000B0B160C00FF11001FE0214D
:1052F000002FE06920AFE02900250022002580383A
:1053000060000C0F00FE0000000000DCDC000AFF63
:1053100000000B0B160C00FF1400140027E02A00FD
:105320007200A3C02200220023E022002200000C11
:105330000F00FE0000000000D9D9000AFF00000B9A
:105340000B160C00FF04000A0011002080DF60042F
:10535000007FC00400150024804C40000C0F00FEAC
:105360000000000000D3D3000AFF00000B0B160C56
:1053700000FF220022005FC04200C7004A80524066
:1053800062204F8042004200000C0F00FE0000002F
:105390000000CDCE000AFF00000B0B160C00FF1220
:1053A00000110020002FE06000A440224022802055
:1053B0008021002FE00B0B160C00FF10C01F0029EE
:1053C0000029006900AFE0290029202AA02D6028CB
:1053D000A0000C0F00FE0000000000A0A0000AFFCB
:1053E00000000B0B160C00FF1100110027E021003C
:1053F0006FE0A20027E02040228021002080000CE6
:105400000F00FE00000000009191000AFF00000B59
:105410000B160C00FF1100110021003FE06100A3FA
:105420008023802540292031002100000C0F00FE40
:105430000000000000FDFD000AFF00000B0B160C31
:1054400000FF10801280224024406820A7C0224024
:1054500022402240244028C0000C0F00FE00000023
:105460000000F6F6000AFF00000B0B160C00FF11FF
:1054700000150025002FC07100A1002FE0210021A0
:105480000021002100000C0F00FE0000000000E4DD
:10549000E5000AFF00000B0B160C00FF04000400DF
:1054A0000A0011002480C2603F8001000A0004004D
:1054B00002000A0B160C01FF010081009100890017
:1054C000890081009100A100C28084401840000C36
:1054D0000F00FE0000000000CECE000AFF00000B0F
:1054E0000B160C00FF11001100110011001100112A
:1054F000002A802A80444088401020000C0F00FEC3
:105500000000000000AEAE000AFF00000B0B160CFE
:1055100000FF0400FFE011001F000000FFE08020FA
:105520001F0011002120C0E0000C0F00FE00000051
:105530000000A4A4000AFF00000B0B160C00FF04DF
:1055400000FFE0000011002080514011000A00041B
:10555000001B0060E0000C0F00FE00000000008E49
:105560008E000AFF00000B0B160C00FF7FC004002A
:1055700004000400FFE00400040004000400040030
:105580001C00000C0F00FE00000000008C8C0008C6
:105590000000000B08100C00007FC000000000009D
:1055A00000000000000000FFE0000C0F00FE000003
:1055B0000000008686000AFF0000090B160C01FFA0
:1055C000FF80010002000C0008000800080008002D
:1055D000080028001000000C0F00FE000000000072
:1055E000CBCB000AFF00000B0B160C00FF080004D9
:1055F000007FC00080010002000400080030004865
:105600000087E0000C0F00FE0000000000C9C90088
:105610000AFF00000B0B160C00FF0880248024807A
:105620002100110012000A0004000A003180C0604D
:10563000000C0F00FE0000000000BABB000AFF00D3
:1056400000090B160C01FF480028000800FF800825
:10565000800C80128012802080448083000B0B1607
:105660000C00FF08000400FFE00400040004007FB9
:10567000C0040004000400FFE0000C0F00FE000066
:10568000000000ADAD000AFF0000090B160C01FF81
:1056900008000800FF80888088808880FF808880DC
:1056A000080008000800000C0F00FE0000000000C9
:1056B000AAAA000AFF00000A0B160C01FF08000846
:1056C0000014002200490088C008000800080008F3
:1056D000000800000C0F00FE00000000009D9D006F
:1056E0000AFF00000B0B160C00FF210021002940CF
:1056F0004A40F780108021004200F7C00000FFE020
:10570000000C0F00FE00000000009393000AFF0051
:10571000000B0B160C00FF04003FC004000400FF48
:10572000E008001FC000800D0002000100000C0F07
:1057300000FE00000000008D8D000AFF00000B0B32
:10574000160C00FFFFE00200020004000D001480B0
:1057500024404420840004000400000C0F00FE00DC
:1057600000000000898B000AFF00000B0A140C00E7
:10577000FF7FC00000000000003F8000000000002C
:10578000000000FFE00B0B160C00FF0400040004F7
:1057900000040007C004000400040004000400FF2B
:1057A000E00B0A140C00FFFFE004000400060005F3
:1057B0000004800480040004000400000C0F00FEBC
:1057C0000000000000808000060000000B02040CB6
:1057D00000040040FFE0000C0F00FE00000000008D
:1057E000BFBF0005000000050505060000081828D9
:1057F00048F8000C0F00FE00000000009D9D00070F
:10580000000000050303060004D84890FFE0FFD124
:1058100040A0C8A6A22FF80023AC00AF10FFFEFFE7
:1058200005FFD0FFE0FFC1FFD1E240A0C8A6A22F34
:10583000F800238127AC00AFFFD0FF64FFD1A5FFA4
:10584000D0FF64FF64FFD1A4FFD0FF16FFFE40002D
:105850009D9D1A00F2574500BFBF1C00D6579C0003
:1058600080801B00BB579C00898B61005A579C00AD
:105870008D8D2D002D579C0093932D0000579C007B
:105880009D9D2D00D3569C00AAAA2D00A6569C00D3
:10589000ADAD2D0079569C00BABB490030569C0036
:1058A000C9C92D0003569C00CBCB2D00D6559D00B9
:1058B00086862D00A9559D008C8C270082559D0061
:1058C0008E8E2D0055559D00A4A42D0028559D00B9
:1058D000AEAE2D00FB549D00CECE2D00CE549D00CB
:1058E000E4E5490085549D00F6F62D0058549D00CE
:1058F000FDFD2D002B549E0091912D00FE539E0026
:10590000A0A02D00D1539E00CDCE490088539E000B
:10591000D3D32D005B539E00D9D92D002E539E006A
:10592000DCDC2D0001539E00FFFF2D00D4529F00B0
:105930009B9B2D00A7529F00B5B52D007A529F006A
:10594000DDDD2D004D529F00E1E12D002052A00031
:10595000BCBC2D00F351A000BEBE2D00C651A0005E
:10596000CFCF2D009951A000DCDC2D006C51A1009F
:10597000A8A82D003F51A100CFCF2D001251A200A9
:10598000C5C52D00E550A200C8C949009C50A20021
:10599000E5E52D006F50A200E8E82D004250A2007E
:1059A000F1F12D001550A200F3F32D00E84FA200F5
:1059B000F7F72D00BB4FA30097972B00904FA30044
:1059C000B7B72D00634FA300C6C62D00364FA30006
:1059D000FAFB4900ED4EA40086874900A44EA400BE
:1059E0009B9B2D00774EA4009D9D2D004A4EA40048
:1059F000ABAB2D001D4EA400B0B02D00F04DA400A7
:105A0000B6B74900A74DA400F2F22D007A4DA500CB
:105A10009B9B2D004D4DA5009FA04900044DA50066
:105A2000A8A82D00D74CA60096962D00AA4CA6003B
:105A3000C7C72D007D4CA600CACA2D00504CA60039
:105A4000CFCF2D00234CA600D5D52D00F64BA600B8
:105A5000E1E12D00C94BA600F0F14900804BA60002
:105A6000F4F42D00534BA600F8F82D00264BA700A8
:105A70008B8B2D00F94AA7009F9F2D00CC4AA700D1
:105A8000CCCD4700854AA700D6D62D00584AA7009E
:105A9000D8D82D002B4AA700F0F02D00FE49A80011
:105AA00083832D00D149A80088882D00A449A8002F
:105AB0008D8E49005B49A80091912D002E49A800C8
:105AC000A6A62D000149A800AFAF2D00D448A8001C
:105AD000CACA2D00A748A800E8E82D007A48A80007
